{"abi":[{"type":"constructor","inputs":[],"stateMutability":"nonpayable"},{"type":"function","name":"allowance","inputs":[{"name":"owner","type":"address","internalType":"address"},{"name":"spender","type":"address","internalType":"address"}],"outputs":[{"name":"","type":"uint256","internalType":"uint256"}],"stateMutability":"view"},{"type":"function","name":"approve","inputs":[{"name":"spender","type":"address","internalType":"address"},{"name":"value","type":"uint256","internalType":"uint256"}],"outputs":[{"name":"","type":"bool","internalType":"bool"}],"stateMutability":"nonpayable"},{"type":"function","name":"balanceOf","inputs":[{"name":"account","type":"address","internalType":"address"}],"outputs":[{"name":"","type":"uint256","internalType":"uint256"}],"stateMutability":"view"},{"type":"function","name":"batchTransfer","inputs":[{"name":"recipients","type":"address[]","internalType":"address[]"},{"name":"amounts","type":"uint256[]","internalType":"uint256[]"}],"outputs":[],"stateMutability":"nonpayable"},{"type":"function","name":"decimals","inputs":[],"outputs":[{"name":"","type":"uint8","internalType":"uint8"}],"stateMutability":"view"},{"type":"function","name":"name","inputs":[],"outputs":[{"name":"","type":"string","internalType":"string"}],"stateMutability":"view"},{"type":"function","name":"symbol","inputs":[],"outputs":[{"name":"","type":"string","internalType":"string"}],"stateMutability":"view"},{"type":"function","name":"totalSupply","inputs":[],"outputs":[{"name":"","type":"uint256","internalType":"uint256"}],"stateMutability":"view"},{"type":"function","name":"transfer","inputs":[{"name":"to","type":"address","internalType":"address"},{"name":"value","type":"uint256","internalType":"uint256"}],"outputs":[{"name":"","type":"bool","internalType":"bool"}],"stateMutability":"nonpayable"},{"type":"function","name":"transferFrom","inputs":[{"name":"from","type":"address","internalType":"address"},{"name":"to","type":"address","internalType":"address"},{"name":"value","type":"uint256","internalType":"uint256"}],"outputs":[{"name":"","type":"bool","internalType":"bool"}],"stateMutability":"nonpayable"},{"type":"event","name":"Approval","inputs":[{"name":"owner","type":"address","indexed":true,"internalType":"address"},{"name":"spender","type":"address","indexed":true,"internalType":"address"},{"name":"value","type":"uint256","indexed":false,"internalType":"uint256"}],"anonymous":false},{"type":"event","name":"BatchTransfer","inputs":[{"name":"recipients","type":"address[]","indexed":false,"internalType":"address[]"},{"name":"amounts","type":"uint256[]","indexed":false,"internalType":"uint256[]"}],"anonymous":false},{"type":"event","name":"Transfer","inputs":[{"name":"from","type":"address","indexed":true,"internalType":"address"},{"name":"to","type":"address","indexed":true,"internalType":"address"},{"name":"value","type":"uint256","indexed":false,"internalType":"uint256"}],"anonymous":false},{"type":"error","name":"ERC20InsufficientAllowance","inputs":[{"name":"spender","type":"address","internalType":"address"},{"name":"allowance","type":"uint256","internalType":"uint256"},{"name":"needed","type":"uint256","internalType":"uint256"}]},{"type":"error","name":"ERC20InsufficientBalance","inputs":[{"name":"sender","type":"address","internalType":"address"},{"name":"balance","type":"uint256","internalType":"uint256"},{"name":"needed","type":"uint256","internalType":"uint256"}]},{"type":"error","name":"ERC20InvalidApprover","inputs":[{"name":"approver","type":"address","internalType":"address"}]},{"type":"error","name":"ERC20InvalidReceiver","inputs":[{"name":"receiver","type":"address","internalType":"address"}]},{"type":"error","name":"ERC20InvalidSender","inputs":[{"name":"sender","type":"address","internalType":"address"}]},{"type":"error","name":"ERC20InvalidSpender","inputs":[{"name":"spender","type":"address","internalType":"address"}]}],"bytecode":{"object":"0x608060405234801561000f575f5ffd5b506040518060400160405280600881526020017f4b4b20546f6b656e0000000000000000000000000000000000000000000000008152506040518060400160405280600281526020017f4b4b000000000000000000000000000000000000000000000000000000000000815250816003908161008b9190610598565b50806004908161009b9190610598565b5050506100b83369d3c21bcecceda10000006100bd60201b60201c565b61077c565b5f73ffffffffffffffffffffffffffffffffffffffff168273ffffffffffffffffffffffffffffffffffffffff160361012d575f6040517fec442f0500000000000000000000000000000000000000000000000000000000815260040161012491906106a6565b60405180910390fd5b61013e5f838361014260201b60201c565b5050565b5f73ffffffffffffffffffffffffffffffffffffffff168373ffffffffffffffffffffffffffffffffffffffff1603610192578060025f82825461018691906106ec565b92505081905550610260565b5f5f5f8573ffffffffffffffffffffffffffffffffffffffff1673ffffffffffffffffffffffffffffffffffffffff1681526020019081526020015f205490508181101561021b578381836040517fe450d38c0000000000000000000000000000000000000000000000000000000081526004016102129392919061072e565b60405180910390fd5b8181035f5f8673ffffffffffffffffffffffffffffffffffffffff1673ffffffffffffffffffffffffffffffffffffffff1681526020019081526020015f2081905550505b5f73ffffffffffffffffffffffffffffffffffffffff168273ffffffffffffffffffffffffffffffffffffffff16036102a7578060025f82825403925050819055506102f1565b805f5f8473ffffffffffffffffffffffffffffffffffffffff1673ffffffffffffffffffffffffffffffffffffffff1681526020019081526020015f205f82825401925050819055505b8173ffffffffffffffffffffffffffffffffffffffff168373ffffffffffffffffffffffffffffffffffffffff167fddf252ad1be2c89b69c2b068fc378daa952ba7f163c4a11628f55a4df523b3ef8360405161034e9190610763565b60405180910390a3505050565b5f81519050919050565b7f4e487b71000000000000000000000000000000000000000000000000000000005f52604160045260245ffd5b7f4e487b71000000000000000000000000000000000000000000000000000000005f52602260045260245ffd5b5f60028204905060018216806103d657607f821691505b6020821081036103e9576103e8610392565b5b50919050565b5f819050815f5260205f209050919050565b5f6020601f8301049050919050565b5f82821b905092915050565b5f6008830261044b7fffffffffffffffffffffffffffffffffffffffffffffffffffffffffffffffff82610410565b6104558683610410565b95508019841693508086168417925050509392505050565b5f819050919050565b5f819050919050565b5f61049961049461048f8461046d565b610476565b61046d565b9050919050565b5f819050919050565b6104b28361047f565b6104c66104be826104a0565b84845461041c565b825550505050565b5f5f905090565b6104dd6104ce565b6104e88184846104a9565b505050565b5b8181101561050b576105005f826104d5565b6001810190506104ee565b5050565b601f82111561055057610521816103ef565b61052a84610401565b81016020851015610539578190505b61054d61054585610401565b8301826104ed565b50505b505050565b5f82821c905092915050565b5f6105705f1984600802610555565b1980831691505092915050565b5f6105888383610561565b9150826002028217905092915050565b6105a18261035b565b67ffffffffffffffff8111156105ba576105b9610365565b5b6105c482546103bf565b6105cf82828561050f565b5f60209050601f831160018114610600575f84156105ee578287015190505b6105f8858261057d565b86555061065f565b601f19841661060e866103ef565b5f5b8281101561063557848901518255600182019150602085019450602081019050610610565b86831015610652578489015161064e601f891682610561565b8355505b6001600288020188555050505b505050505050565b5f73ffffffffffffffffffffffffffffffffffffffff82169050919050565b5f61069082610667565b9050919050565b6106a081610686565b82525050565b5f6020820190506106b95f830184610697565b92915050565b7f4e487b71000000000000000000000000000000000000000000000000000000005f52601160045260245ffd5b5f6106f68261046d565b91506107018361046d565b9250828201905080821115610719576107186106bf565b5b92915050565b6107288161046d565b82525050565b5f6060820190506107415f830186610697565b61074e602083018561071f565b61075b604083018461071f565b949350505050565b5f6020820190506107765f83018461071f565b92915050565b6113c6806107895f395ff3fe608060405234801561000f575f5ffd5b506004361061009c575f3560e01c806370a082311161006457806370a082311461015a57806388d695b21461018a57806395d89b41146101a6578063a9059cbb146101c4578063dd62ed3e146101f45761009c565b806306fdde03146100a0578063095ea7b3146100be57806318160ddd146100ee57806323b872dd1461010c578063313ce5671461013c575b5f5ffd5b6100a8610224565b6040516100b59190610b5e565b60405180910390f35b6100d860048036038101906100d39190610c1c565b6102b4565b6040516100e59190610c74565b60405180910390f35b6100f66102d6565b6040516101039190610c9c565b60405180910390f35b61012660048036038101906101219190610cb5565b6102df565b6040516101339190610c74565b60405180910390f35b61014461030d565b6040516101519190610d20565b60405180910390f35b610174600480360381019061016f9190610d39565b610315565b6040516101819190610c9c565b60405180910390f35b6101a4600480360381019061019f9190610f64565b61035a565b005b6101ae610436565b6040516101bb9190610b5e565b60405180910390f35b6101de60048036038101906101d99190610c1c565b6104c6565b6040516101eb9190610c74565b60405180910390f35b61020e60048036038101906102099190610fda565b6104e8565b60405161021b9190610c9c565b60405180910390f35b60606003805461023390611045565b80601f016020809104026020016040519081016040528092919081815260200182805461025f90611045565b80156102aa5780601f10610281576101008083540402835291602001916102aa565b820191905f5260205f20905b81548152906001019060200180831161028d57829003601f168201915b5050505050905090565b5f5f6102be61056a565b90506102cb818585610571565b600191505092915050565b5f600254905090565b5f5f6102e961056a565b90506102f6858285610583565b610301858585610616565b60019150509392505050565b5f6012905090565b5f5f5f8373ffffffffffffffffffffffffffffffffffffffff1673ffffffffffffffffffffffffffffffffffffffff1681526020019081526020015f20549050919050565b805182511461039e576040517f08c379a0000000000000000000000000000000000000000000000000000000008152600401610395906110e5565b60405180910390fd5b5f5f90505b82518110156103f8576103ea8382815181106103c2576103c1611103565b5b60200260200101518383815181106103dd576103dc611103565b5b60200260200101516104c6565b5080806001019150506103a3565b507f2a8b481c4fd6b79532b02dcb3d102185cbfaf1fe525ae1283184c2fb15cbca1d828260405161042a92919061129e565b60405180910390a15050565b60606004805461044590611045565b80601f016020809104026020016040519081016040528092919081815260200182805461047190611045565b80156104bc5780601f10610493576101008083540402835291602001916104bc565b820191905f5260205f20905b81548152906001019060200180831161049f57829003601f168201915b5050505050905090565b5f5f6104d061056a565b90506104dd818585610616565b600191505092915050565b5f60015f8473ffffffffffffffffffffffffffffffffffffffff1673ffffffffffffffffffffffffffffffffffffffff1681526020019081526020015f205f8373ffffffffffffffffffffffffffffffffffffffff1673ffffffffffffffffffffffffffffffffffffffff1681526020019081526020015f2054905092915050565b5f33905090565b61057e8383836001610706565b505050565b5f61058e84846104e8565b90507fffffffffffffffffffffffffffffffffffffffffffffffffffffffffffffffff8110156106105781811015610601578281836040517ffb8f41b20000000000000000000000000000000000000000000000000000000081526004016105f8939291906112e2565b60405180910390fd5b61060f84848484035f610706565b5b50505050565b5f73ffffffffffffffffffffffffffffffffffffffff168373ffffffffffffffffffffffffffffffffffffffff1603610686575f6040517f96c6fd1e00000000000000000000000000000000000000000000000000000000815260040161067d9190611317565b60405180910390fd5b5f73ffffffffffffffffffffffffffffffffffffffff168273ffffffffffffffffffffffffffffffffffffffff16036106f6575f6040517fec442f050000000000000000000000000000000000000000000000000000000081526004016106ed9190611317565b60405180910390fd5b6107018383836108d5565b505050565b5f73ffffffffffffffffffffffffffffffffffffffff168473ffffffffffffffffffffffffffffffffffffffff1603610776575f6040517fe602df0500000000000000000000000000000000000000000000000000000000815260040161076d9190611317565b60405180910390fd5b5f73ffffffffffffffffffffffffffffffffffffffff168373ffffffffffffffffffffffffffffffffffffffff16036107e6575f6040517f94280d620000000000000000000000000000000000000000000000000000000081526004016107dd9190611317565b60405180910390fd5b8160015f8673ffffffffffffffffffffffffffffffffffffffff1673ffffffffffffffffffffffffffffffffffffffff1681526020019081526020015f205f8573ffffffffffffffffffffffffffffffffffffffff1673ffffffffffffffffffffffffffffffffffffffff1681526020019081526020015f208190555080156108cf578273ffffffffffffffffffffffffffffffffffffffff168473ffffffffffffffffffffffffffffffffffffffff167f8c5be1e5ebec7d5bd14f71427d1e84f3dd0314c0f7b2291e5b200ac8c7c3b925846040516108c69190610c9c565b60405180910390a35b50505050565b5f73ffffffffffffffffffffffffffffffffffffffff168373ffffffffffffffffffffffffffffffffffffffff1603610925578060025f828254610919919061135d565b925050819055506109f3565b5f5f5f8573ffffffffffffffffffffffffffffffffffffffff1673ffffffffffffffffffffffffffffffffffffffff1681526020019081526020015f20549050818110156109ae578381836040517fe450d38c0000000000000000000000000000000000000000000000000000000081526004016109a5939291906112e2565b60405180910390fd5b8181035f5f8673ffffffffffffffffffffffffffffffffffffffff1673ffffffffffffffffffffffffffffffffffffffff1681526020019081526020015f2081905550505b5f73ffffffffffffffffffffffffffffffffffffffff168273ffffffffffffffffffffffffffffffffffffffff1603610a3a578060025f8282540392505081905550610a84565b805f5f8473ffffffffffffffffffffffffffffffffffffffff1673ffffffffffffffffffffffffffffffffffffffff1681526020019081526020015f205f82825401925050819055505b8173ffffffffffffffffffffffffffffffffffffffff168373ffffffffffffffffffffffffffffffffffffffff167fddf252ad1be2c89b69c2b068fc378daa952ba7f163c4a11628f55a4df523b3ef83604051610ae19190610c9c565b60405180910390a3505050565b5f81519050919050565b5f82825260208201905092915050565b8281835e5f83830152505050565b5f601f19601f8301169050919050565b5f610b3082610aee565b610b3a8185610af8565b9350610b4a818560208601610b08565b610b5381610b16565b840191505092915050565b5f6020820190508181035f830152610b768184610b26565b905092915050565b5f604051905090565b5f5ffd5b5f5ffd5b5f73ffffffffffffffffffffffffffffffffffffffff82169050919050565b5f610bb882610b8f565b9050919050565b610bc881610bae565b8114610bd2575f5ffd5b50565b5f81359050610be381610bbf565b92915050565b5f819050919050565b610bfb81610be9565b8114610c05575f5ffd5b50565b5f81359050610c1681610bf2565b92915050565b5f5f60408385031215610c3257610c31610b87565b5b5f610c3f85828601610bd5565b9250506020610c5085828601610c08565b9150509250929050565b5f8115159050919050565b610c6e81610c5a565b82525050565b5f602082019050610c875f830184610c65565b92915050565b610c9681610be9565b82525050565b5f602082019050610caf5f830184610c8d565b92915050565b5f5f5f60608486031215610ccc57610ccb610b87565b5b5f610cd986828701610bd5565b9350506020610cea86828701610bd5565b9250506040610cfb86828701610c08565b9150509250925092565b5f60ff82169050919050565b610d1a81610d05565b82525050565b5f602082019050610d335f830184610d11565b92915050565b5f60208284031215610d4e57610d4d610b87565b5b5f610d5b84828501610bd5565b91505092915050565b5f5ffd5b7f4e487b71000000000000000000000000000000000000000000000000000000005f52604160045260245ffd5b610d9e82610b16565b810181811067ffffffffffffffff82111715610dbd57610dbc610d68565b5b80604052505050565b5f610dcf610b7e565b9050610ddb8282610d95565b919050565b5f67ffffffffffffffff821115610dfa57610df9610d68565b5b602082029050602081019050919050565b5f5ffd5b5f610e21610e1c84610de0565b610dc6565b90508083825260208201905060208402830185811115610e4457610e43610e0b565b5b835b81811015610e6d5780610e598882610bd5565b845260208401935050602081019050610e46565b5050509392505050565b5f82601f830112610e8b57610e8a610d64565b5b8135610e9b848260208601610e0f565b91505092915050565b5f67ffffffffffffffff821115610ebe57610ebd610d68565b5b602082029050602081019050919050565b5f610ee1610edc84610ea4565b610dc6565b90508083825260208201905060208402830185811115610f0457610f03610e0b565b5b835b81811015610f2d5780610f198882610c08565b845260208401935050602081019050610f06565b5050509392505050565b5f82601f830112610f4b57610f4a610d64565b5b8135610f5b848260208601610ecf565b91505092915050565b5f5f60408385031215610f7a57610f79610b87565b5b5f83013567ffffffffffffffff811115610f9757610f96610b8b565b5b610fa385828601610e77565b925050602083013567ffffffffffffffff811115610fc457610fc3610b8b565b5b610fd085828601610f37565b9150509250929050565b5f5f60408385031215610ff057610fef610b87565b5b5f610ffd85828601610bd5565b925050602061100e85828601610bd5565b9150509250929050565b7f4e487b71000000000000000000000000000000000000000000000000000000005f52602260045260245ffd5b5f600282049050600182168061105c57607f821691505b60208210810361106f5761106e611018565b5b50919050565b7f4b4b546f6b656e3a20726563697069656e747320616e6420616d6f756e7473205f8201527f6c656e677468206d69736d617463680000000000000000000000000000000000602082015250565b5f6110cf602f83610af8565b91506110da82611075565b604082019050919050565b5f6020820190508181035f8301526110fc816110c3565b9050919050565b7f4e487b71000000000000000000000000000000000000000000000000000000005f52603260045260245ffd5b5f81519050919050565b5f82825260208201905092915050565b5f819050602082019050919050565b61116281610bae565b82525050565b5f6111738383611159565b60208301905092915050565b5f602082019050919050565b5f61119582611130565b61119f818561113a565b93506111aa8361114a565b805f5b838110156111da5781516111c18882611168565b97506111cc8361117f565b9250506001810190506111ad565b5085935050505092915050565b5f81519050919050565b5f82825260208201905092915050565b5f819050602082019050919050565b61121981610be9565b82525050565b5f61122a8383611210565b60208301905092915050565b5f602082019050919050565b5f61124c826111e7565b61125681856111f1565b935061126183611201565b805f5b83811015611291578151611278888261121f565b975061128383611236565b925050600181019050611264565b5085935050505092915050565b5f6040820190508181035f8301526112b6818561118b565b905081810360208301526112ca8184611242565b90509392505050565b6112dc81610bae565b82525050565b5f6060820190506112f55f8301866112d3565b6113026020830185610c8d565b61130f6040830184610c8d565b949350505050565b5f60208201905061132a5f8301846112d3565b92915050565b7f4e487b71000000000000000000000000000000000000000000000000000000005f52601160045260245ffd5b5f61136782610be9565b915061137283610be9565b925082820190508082111561138a57611389611330565b5b9291505056fea26469706673582212201c9f397da131171e2351d627da11d5bec08a588851620d1c2f16c29ff56e8baa64736f6c634300081c0033","linkReferences":{}},"methodIdentifiers":{"allowance(address,address)":"dd62ed3e","approve(address,uint256)":"095ea7b3","balanceOf(address)":"70a08231","batchTransfer(address[],uint256[])":"88d695b2","decimals()":"313ce567","name()":"06fdde03","symbol()":"95d89b41","totalSupply()":"18160ddd","transfer(address,uint256)":"a9059cbb","transferFrom(address,address,uint256)":"23b872dd"},"id":37}