{"abi":[{"type":"constructor","inputs":[{"name":"_market","type":"address","internalType":"contract NFTMarket"},{"name":"_token","type":"address","internalType":"contract IERC20"}],"stateMutability":"nonpayable"},{"type":"function","name":"attack","inputs":[{"name":"nft","type":"address","internalType":"address"},{"name":"tokenId","type":"uint256","internalType":"uint256"},{"name":"amount","type":"uint256","internalType":"uint256"}],"outputs":[],"stateMutability":"nonpayable"},{"type":"function","name":"market","inputs":[],"outputs":[{"name":"","type":"address","internalType":"contract NFTMarket"}],"stateMutability":"view"},{"type":"function","name":"token","inputs":[],"outputs":[{"name":"","type":"address","internalType":"contract IERC20"}],"stateMutability":"view"},{"type":"function","name":"tokensReceived","inputs":[{"name":"operator","type":"address","internalType":"address"},{"name":"from","type":"address","internalType":"address"},{"name":"amount","type":"uint256","internalType":"uint256"},{"name":"data","type":"bytes","internalType":"bytes"}],"outputs":[{"name":"","type":"bool","internalType":"bool"}],"stateMutability":"nonpayable"}],"bytecode":{"object":"0x608060405234801561000f575f5ffd5b5060405161097e38038061097e83398181016040528101906100319190610161565b815f5f6101000a81548173ffffffffffffffffffffffffffffffffffffffff021916908373ffffffffffffffffffffffffffffffffffffffff1602179055508060015f6101000a81548173ffffffffffffffffffffffffffffffffffffffff021916908373ffffffffffffffffffffffffffffffffffffffff160217905550505061019f565b5f5ffd5b5f73ffffffffffffffffffffffffffffffffffffffff82169050919050565b5f6100e4826100bb565b9050919050565b5f6100f5826100da565b9050919050565b610105816100eb565b811461010f575f5ffd5b50565b5f81519050610120816100fc565b92915050565b5f610130826100da565b9050919050565b61014081610126565b811461014a575f5ffd5b50565b5f8151905061015b81610137565b92915050565b5f5f60408385031215610177576101766100b7565b5b5f61018485828601610112565b92505060206101958582860161014d565b9150509250929050565b6107d2806101ac5f395ff3fe608060405234801561000f575f5ffd5b506004361061004a575f3560e01c8063452ae3311461004e57806380f556051461006a578063af68638914610088578063fc0c546a146100b8575b5f5ffd5b61006860048036038101906100639190610435565b6100d6565b005b610072610220565b60405161007f91906104e0565b60405180910390f35b6100a2600480360381019061009d919061055a565b610244565b6040516100af91906105f8565b60405180910390f35b6100c061037b565b6040516100cd9190610631565b60405180910390f35b60015f9054906101000a900473ffffffffffffffffffffffffffffffffffffffff1673ffffffffffffffffffffffffffffffffffffffff1663095ea7b35f5f9054906101000a900473ffffffffffffffffffffffffffffffffffffffff16836040518363ffffffff1660e01b8152600401610152929190610668565b6020604051808303815f875af115801561016e573d5f5f3e3d5ffd5b505050506040513d601f19601f8201168201806040525081019061019291906106b9565b505f5f9054906101000a900473ffffffffffffffffffffffffffffffffffffffff1673ffffffffffffffffffffffffffffffffffffffff1663a82ba76f84846040518363ffffffff1660e01b81526004016101ee929190610668565b5f604051808303815f87803b158015610205575f5ffd5b505af1158015610217573d5f5f3e3d5ffd5b50505050505050565b5f5f9054906101000a900473ffffffffffffffffffffffffffffffffffffffff1681565b5f8360015f9054906101000a900473ffffffffffffffffffffffffffffffffffffffff1673ffffffffffffffffffffffffffffffffffffffff166370a08231306040518263ffffffff1660e01b81526004016102a091906106e4565b602060405180830381865afa1580156102bb573d5f5f3e3d5ffd5b505050506040513d601f19601f820116820180604052508101906102df9190610711565b1061036e575f5f9054906101000a900473ffffffffffffffffffffffffffffffffffffffff1673ffffffffffffffffffffffffffffffffffffffff1663a82ba76f5f60016040518363ffffffff1660e01b8152600401610340929190610775565b5f604051808303815f87803b158015610357575f5ffd5b505af1158015610369573d5f5f3e3d5ffd5b505050505b6001905095945050505050565b60015f9054906101000a900473ffffffffffffffffffffffffffffffffffffffff1681565b5f5ffd5b5f5ffd5b5f73ffffffffffffffffffffffffffffffffffffffff82169050919050565b5f6103d1826103a8565b9050919050565b6103e1816103c7565b81146103eb575f5ffd5b50565b5f813590506103fc816103d8565b92915050565b5f819050919050565b61041481610402565b811461041e575f5ffd5b50565b5f8135905061042f8161040b565b92915050565b5f5f5f6060848603121561044c5761044b6103a0565b5b5f610459868287016103ee565b935050602061046a86828701610421565b925050604061047b86828701610421565b9150509250925092565b5f819050919050565b5f6104a86104a361049e846103a8565b610485565b6103a8565b9050919050565b5f6104b98261048e565b9050919050565b5f6104ca826104af565b9050919050565b6104da816104c0565b82525050565b5f6020820190506104f35f8301846104d1565b92915050565b5f5ffd5b5f5ffd5b5f5ffd5b5f5f83601f84011261051a576105196104f9565b5b8235905067ffffffffffffffff811115610537576105366104fd565b5b60208301915083600182028301111561055357610552610501565b5b9250929050565b5f5f5f5f5f60808688031215610573576105726103a0565b5b5f610580888289016103ee565b9550506020610591888289016103ee565b94505060406105a288828901610421565b935050606086013567ffffffffffffffff8111156105c3576105c26103a4565b5b6105cf88828901610505565b92509250509295509295909350565b5f8115159050919050565b6105f2816105de565b82525050565b5f60208201905061060b5f8301846105e9565b92915050565b5f61061b826104af565b9050919050565b61062b81610611565b82525050565b5f6020820190506106445f830184610622565b92915050565b610653816103c7565b82525050565b61066281610402565b82525050565b5f60408201905061067b5f83018561064a565b6106886020830184610659565b9392505050565b610698816105de565b81146106a2575f5ffd5b50565b5f815190506106b38161068f565b92915050565b5f602082840312156106ce576106cd6103a0565b5b5f6106db848285016106a5565b91505092915050565b5f6020820190506106f75f83018461064a565b92915050565b5f8151905061070b8161040b565b92915050565b5f60208284031215610726576107256103a0565b5b5f610733848285016106fd565b91505092915050565b5f819050919050565b5f61075f61075a6107558461073c565b610485565b610402565b9050919050565b61076f81610745565b82525050565b5f6040820190506107885f83018561064a565b6107956020830184610766565b939250505056fea264697066735822122047aabd9a31ed5df6c7370840542ab2b7852a887a9de51cf6413422d38bb21fe764736f6c634300081c0033","linkReferences":{}},"methodIdentifiers":{"attack(address,uint256,uint256)":"452ae331","market()":"80f55605","token()":"fc0c546a","tokensReceived(address,address,uint256,bytes)":"af686389"},"id":36}