{"abi":[{"type":"function","name":"balanceOf","inputs":[{"name":"","type":"address","internalType":"address"}],"outputs":[{"name":"","type":"uint256","internalType":"uint256"}],"stateMutability":"view"},{"type":"function","name":"depositETH","inputs":[],"outputs":[],"stateMutability":"payable"},{"type":"event","name":"Deposit","inputs":[{"name":"user","type":"address","indexed":true,"internalType":"address"},{"name":"amount","type":"uint256","indexed":false,"internalType":"uint256"}],"anonymous":false}],"bytecode":{"object":"0x6080604052348015600e575f5ffd5b506103588061001c5f395ff3fe608060405260043610610028575f3560e01c806370a082311461002c578063f6326fb314610068575b5f5ffd5b348015610037575f5ffd5b50610052600480360381019061004d91906101c8565b610072565b60405161005f919061020b565b60405180910390f35b610070610086565b005b5f602052805f5260405f205f915090505481565b5f34116100c8576040517f08c379a00000000000000000000000000000000000000000000000000000000081526004016100bf906102a4565b60405180910390fd5b345f5f3373ffffffffffffffffffffffffffffffffffffffff1673ffffffffffffffffffffffffffffffffffffffff1681526020019081526020015f205f82825461011391906102ef565b925050819055503373ffffffffffffffffffffffffffffffffffffffff167fe1fffcc4923d04b559f4d29a8bfc6cda04eb5b0d3c460751c2402c5c5cc9109c34604051610160919061020b565b60405180910390a2565b5f5ffd5b5f73ffffffffffffffffffffffffffffffffffffffff82169050919050565b5f6101978261016e565b9050919050565b6101a78161018d565b81146101b1575f5ffd5b50565b5f813590506101c28161019e565b92915050565b5f602082840312156101dd576101dc61016a565b5b5f6101ea848285016101b4565b91505092915050565b5f819050919050565b610205816101f3565b82525050565b5f60208201905061021e5f8301846101fc565b92915050565b5f82825260208201905092915050565b7f4465706f73697420616d6f756e74206d757374206265206772656174657220745f8201527f68616e2030000000000000000000000000000000000000000000000000000000602082015250565b5f61028e602583610224565b915061029982610234565b604082019050919050565b5f6020820190508181035f8301526102bb81610282565b9050919050565b7f4e487b71000000000000000000000000000000000000000000000000000000005f52601160045260245ffd5b5f6102f9826101f3565b9150610304836101f3565b925082820190508082111561031c5761031b6102c2565b5b9291505056fea264697066735822122047068812cb425b5d36dddd1aa2a02697788fb6f267445fef43446e470be44d3564736f6c634300081c0033","linkReferences":{}},"methodIdentifiers":{"balanceOf(address)":"70a08231","depositETH()":"f6326fb3"},"id":25}