{"abi":[{"type":"constructor","inputs":[{"name":"_name","type":"string","internalType":"string"},{"name":"_symbol","type":"string","internalType":"string"},{"name":"_totalSupply","type":"uint256","internalType":"uint256"}],"stateMutability":"nonpayable"},{"type":"function","name":"allowance","inputs":[{"name":"owner","type":"address","internalType":"address"},{"name":"spender","type":"address","internalType":"address"}],"outputs":[{"name":"","type":"uint256","internalType":"uint256"}],"stateMutability":"view"},{"type":"function","name":"allowances","inputs":[{"name":"","type":"address","internalType":"address"},{"name":"","type":"address","internalType":"address"}],"outputs":[{"name":"","type":"uint256","internalType":"uint256"}],"stateMutability":"view"},{"type":"function","name":"approve","inputs":[{"name":"spender","type":"address","internalType":"address"},{"name":"amount","type":"uint256","internalType":"uint256"}],"outputs":[{"name":"","type":"bool","internalType":"bool"}],"stateMutability":"nonpayable"},{"type":"function","name":"balanceOf","inputs":[{"name":"account","type":"address","internalType":"address"}],"outputs":[{"name":"","type":"uint256","internalType":"uint256"}],"stateMutability":"view"},{"type":"function","name":"balances","inputs":[{"name":"","type":"address","internalType":"address"}],"outputs":[{"name":"","type":"uint256","internalType":"uint256"}],"stateMutability":"view"},{"type":"function","name":"decimals","inputs":[],"outputs":[{"name":"","type":"uint8","internalType":"uint8"}],"stateMutability":"view"},{"type":"function","name":"name","inputs":[],"outputs":[{"name":"","type":"string","internalType":"string"}],"stateMutability":"view"},{"type":"function","name":"symbol","inputs":[],"outputs":[{"name":"","type":"string","internalType":"string"}],"stateMutability":"view"},{"type":"function","name":"totalSupply","inputs":[],"outputs":[{"name":"","type":"uint256","internalType":"uint256"}],"stateMutability":"view"},{"type":"function","name":"transfer","inputs":[{"name":"recipient","type":"address","internalType":"address"},{"name":"amount","type":"uint256","internalType":"uint256"}],"outputs":[{"name":"","type":"bool","internalType":"bool"}],"stateMutability":"nonpayable"},{"type":"function","name":"transferFrom","inputs":[{"name":"sender","type":"address","internalType":"address"},{"name":"recipient","type":"address","internalType":"address"},{"name":"amount","type":"uint256","internalType":"uint256"}],"outputs":[{"name":"","type":"bool","internalType":"bool"}],"stateMutability":"nonpayable"},{"type":"function","name":"transferWithCallback","inputs":[{"name":"recipient","type":"address","internalType":"address"},{"name":"amount","type":"uint256","internalType":"uint256"}],"outputs":[],"stateMutability":"nonpayable"},{"type":"event","name":"Approval","inputs":[{"name":"owner","type":"address","indexed":true,"internalType":"address"},{"name":"spender","type":"address","indexed":true,"internalType":"address"},{"name":"value","type":"uint256","indexed":false,"internalType":"uint256"}],"anonymous":false},{"type":"event","name":"Transfer","inputs":[{"name":"from","type":"address","indexed":true,"internalType":"address"},{"name":"to","type":"address","indexed":true,"internalType":"address"},{"name":"value","type":"uint256","indexed":false,"internalType":"uint256"}],"anonymous":false}],"bytecode":{"object":"0x6080604052601260025f6101000a81548160ff021916908360ff16021790555034801561002a575f5ffd5b50604051611731380380611731833981810160405281019061004c919061023e565b825f908161005a91906104cd565b50816001908161006a91906104cd565b508060038190555060035460045f3373ffffffffffffffffffffffffffffffffffffffff1673ffffffffffffffffffffffffffffffffffffffff1681526020019081526020015f208190555050505061059c565b5f604051905090565b5f5ffd5b5f5ffd5b5f5ffd5b5f5ffd5b5f601f19601f8301169050919050565b7f4e487b71000000000000000000000000000000000000000000000000000000005f52604160045260245ffd5b61011d826100d7565b810181811067ffffffffffffffff8211171561013c5761013b6100e7565b5b80604052505050565b5f61014e6100be565b905061015a8282610114565b919050565b5f67ffffffffffffffff821115610179576101786100e7565b5b610182826100d7565b9050602081019050919050565b8281835e5f83830152505050565b5f6101af6101aa8461015f565b610145565b9050828152602081018484840111156101cb576101ca6100d3565b5b6101d684828561018f565b509392505050565b5f82601f8301126101f2576101f16100cf565b5b815161020284826020860161019d565b91505092915050565b5f819050919050565b61021d8161020b565b8114610227575f5ffd5b50565b5f8151905061023881610214565b92915050565b5f5f5f60608486031215610255576102546100c7565b5b5f84015167ffffffffffffffff811115610272576102716100cb565b5b61027e868287016101de565b935050602084015167ffffffffffffffff81111561029f5761029e6100cb565b5b6102ab868287016101de565b92505060406102bc8682870161022a565b9150509250925092565b5f81519050919050565b7f4e487b71000000000000000000000000000000000000000000000000000000005f52602260045260245ffd5b5f600282049050600182168061031457607f821691505b602082108103610327576103266102d0565b5b50919050565b5f819050815f5260205f209050919050565b5f6020601f8301049050919050565b5f82821b905092915050565b5f600883026103897fffffffffffffffffffffffffffffffffffffffffffffffffffffffffffffffff8261034e565b610393868361034e565b95508019841693508086168417925050509392505050565b5f819050919050565b5f6103ce6103c96103c48461020b565b6103ab565b61020b565b9050919050565b5f819050919050565b6103e7836103b4565b6103fb6103f3826103d5565b84845461035a565b825550505050565b5f5f905090565b610412610403565b61041d8184846103de565b505050565b5b81811015610440576104355f8261040a565b600181019050610423565b5050565b601f821115610485576104568161032d565b61045f8461033f565b8101602085101561046e578190505b61048261047a8561033f565b830182610422565b50505b505050565b5f82821c905092915050565b5f6104a55f198460080261048a565b1980831691505092915050565b5f6104bd8383610496565b9150826002028217905092915050565b6104d6826102c6565b67ffffffffffffffff8111156104ef576104ee6100e7565b5b6104f982546102fd565b610504828285610444565b5f60209050601f831160018114610535575f8415610523578287015190505b61052d85826104b2565b865550610594565b601f1984166105438661032d565b5f5b8281101561056a57848901518255600182019150602085019450602081019050610545565b868310156105875784890151610583601f891682610496565b8355505b6001600288020188555050505b505050505050565b611188806105a95f395ff3fe608060405234801561000f575f5ffd5b50600436106100b2575f3560e01c8063313ce5671161006f578063313ce5671461019e57806355b6ed5c146101bc57806370a08231146101ec57806395d89b411461021c578063a9059cbb1461023a578063dd62ed3e1461026a576100b2565b806306fdde03146100b6578063095ea7b3146100d457806318160ddd146101045780631a825b751461012257806323b872dd1461013e57806327e235e31461016e575b5f5ffd5b6100be61029a565b6040516100cb9190610c4b565b60405180910390f35b6100ee60048036038101906100e99190610cfc565b610325565b6040516100fb9190610d54565b60405180910390f35b61010c6103ad565b6040516101199190610d7c565b60405180910390f35b61013c60048036038101906101379190610cfc565b6103b3565b005b61015860048036038101906101539190610d95565b6105b9565b6040516101659190610d54565b60405180910390f35b61018860048036038101906101839190610de5565b610899565b6040516101959190610d7c565b60405180910390f35b6101a66108ae565b6040516101b39190610e2b565b60405180910390f35b6101d660048036038101906101d19190610e44565b6108c0565b6040516101e39190610d7c565b60405180910390f35b61020660048036038101906102019190610de5565b6108e0565b6040516102139190610d7c565b60405180910390f35b610224610926565b6040516102319190610c4b565b60405180910390f35b610254600480360381019061024f9190610cfc565b6109b2565b6040516102619190610d54565b60405180910390f35b610284600480360381019061027f9190610e44565b610b48565b6040516102919190610d7c565b60405180910390f35b5f80546102a690610eaf565b80601f01602080910402602001604051908101604052809291908181526020018280546102d290610eaf565b801561031d5780601f106102f45761010080835404028352916020019161031d565b820191905f5260205f20905b81548152906001019060200180831161030057829003601f168201915b505050505081565b5f8160055f3373ffffffffffffffffffffffffffffffffffffffff1673ffffffffffffffffffffffffffffffffffffffff1681526020019081526020015f205f8573ffffffffffffffffffffffffffffffffffffffff1673ffffffffffffffffffffffffffffffffffffffff1681526020019081526020015f20819055506001905092915050565b60035481565b8060045f3373ffffffffffffffffffffffffffffffffffffffff1673ffffffffffffffffffffffffffffffffffffffff1681526020019081526020015f20541015610433576040517f08c379a000000000000000000000000000000000000000000000000000000000815260040161042a90610f4f565b60405180910390fd5b8060045f3373ffffffffffffffffffffffffffffffffffffffff1673ffffffffffffffffffffffffffffffffffffffff1681526020019081526020015f205f82825461047f9190610f9a565b925050819055508060045f8473ffffffffffffffffffffffffffffffffffffffff1673ffffffffffffffffffffffffffffffffffffffff1681526020019081526020015f205f8282546104d29190610fcd565b925050819055508173ffffffffffffffffffffffffffffffffffffffff163373ffffffffffffffffffffffffffffffffffffffff167fddf252ad1be2c89b69c2b068fc378daa952ba7f163c4a11628f55a4df523b3ef836040516105369190610d7c565b60405180910390a361054782610bca565b156105b5578173ffffffffffffffffffffffffffffffffffffffff166324a756d133836040518363ffffffff1660e01b815260040161058792919061100f565b5f604051808303815f87803b15801561059e575f5ffd5b505af11580156105b0573d5f5f3e3d5ffd5b505050505b5050565b5f8160055f8673ffffffffffffffffffffffffffffffffffffffff1673ffffffffffffffffffffffffffffffffffffffff1681526020019081526020015f205f3373ffffffffffffffffffffffffffffffffffffffff1673ffffffffffffffffffffffffffffffffffffffff1681526020019081526020015f20541015610675576040517f08c379a000000000000000000000000000000000000000000000000000000000815260040161066c906110a6565b60405180910390fd5b8160045f8673ffffffffffffffffffffffffffffffffffffffff1673ffffffffffffffffffffffffffffffffffffffff1681526020019081526020015f205410156106f5576040517f08c379a00000000000000000000000000000000000000000000000000000000081526004016106ec90611134565b60405180910390fd5b8160045f8673ffffffffffffffffffffffffffffffffffffffff1673ffffffffffffffffffffffffffffffffffffffff1681526020019081526020015f205f8282546107419190610f9a565b925050819055508160045f8573ffffffffffffffffffffffffffffffffffffffff1673ffffffffffffffffffffffffffffffffffffffff1681526020019081526020015f205f8282546107949190610fcd565b925050819055508160055f8673ffffffffffffffffffffffffffffffffffffffff1673ffffffffffffffffffffffffffffffffffffffff1681526020019081526020015f205f3373ffffffffffffffffffffffffffffffffffffffff1673ffffffffffffffffffffffffffffffffffffffff1681526020019081526020015f205f8282546108229190610f9a565b925050819055508273ffffffffffffffffffffffffffffffffffffffff168473ffffffffffffffffffffffffffffffffffffffff167fddf252ad1be2c89b69c2b068fc378daa952ba7f163c4a11628f55a4df523b3ef846040516108869190610d7c565b60405180910390a3600190509392505050565b6004602052805f5260405f205f915090505481565b60025f9054906101000a900460ff1681565b6005602052815f5260405f20602052805f5260405f205f91509150505481565b5f60045f8373ffffffffffffffffffffffffffffffffffffffff1673ffffffffffffffffffffffffffffffffffffffff1681526020019081526020015f20549050919050565b6001805461093390610eaf565b80601f016020809104026020016040519081016040528092919081815260200182805461095f90610eaf565b80156109aa5780601f10610981576101008083540402835291602001916109aa565b820191905f5260205f20905b81548152906001019060200180831161098d57829003601f168201915b505050505081565b5f8160045f3373ffffffffffffffffffffffffffffffffffffffff1673ffffffffffffffffffffffffffffffffffffffff1681526020019081526020015f20541015610a33576040517f08c379a0000000000000000000000000000000000000000000000000000000008152600401610a2a90611134565b60405180910390fd5b8160045f3373ffffffffffffffffffffffffffffffffffffffff1673ffffffffffffffffffffffffffffffffffffffff1681526020019081526020015f205f828254610a7f9190610f9a565b925050819055508160045f8573ffffffffffffffffffffffffffffffffffffffff1673ffffffffffffffffffffffffffffffffffffffff1681526020019081526020015f205f828254610ad29190610fcd565b925050819055508273ffffffffffffffffffffffffffffffffffffffff163373ffffffffffffffffffffffffffffffffffffffff167fddf252ad1be2c89b69c2b068fc378daa952ba7f163c4a11628f55a4df523b3ef84604051610b369190610d7c565b60405180910390a36001905092915050565b5f60055f8473ffffffffffffffffffffffffffffffffffffffff1673ffffffffffffffffffffffffffffffffffffffff1681526020019081526020015f205f8373ffffffffffffffffffffffffffffffffffffffff1673ffffffffffffffffffffffffffffffffffffffff1681526020019081526020015f2054905092915050565b5f5f823b90505f8111915050919050565b5f81519050919050565b5f82825260208201905092915050565b8281835e5f83830152505050565b5f601f19601f8301169050919050565b5f610c1d82610bdb565b610c278185610be5565b9350610c37818560208601610bf5565b610c4081610c03565b840191505092915050565b5f6020820190508181035f830152610c638184610c13565b905092915050565b5f5ffd5b5f73ffffffffffffffffffffffffffffffffffffffff82169050919050565b5f610c9882610c6f565b9050919050565b610ca881610c8e565b8114610cb2575f5ffd5b50565b5f81359050610cc381610c9f565b92915050565b5f819050919050565b610cdb81610cc9565b8114610ce5575f5ffd5b50565b5f81359050610cf681610cd2565b92915050565b5f5f60408385031215610d1257610d11610c6b565b5b5f610d1f85828601610cb5565b9250506020610d3085828601610ce8565b9150509250929050565b5f8115159050919050565b610d4e81610d3a565b82525050565b5f602082019050610d675f830184610d45565b92915050565b610d7681610cc9565b82525050565b5f602082019050610d8f5f830184610d6d565b92915050565b5f5f5f60608486031215610dac57610dab610c6b565b5b5f610db986828701610cb5565b9350506020610dca86828701610cb5565b9250506040610ddb86828701610ce8565b9150509250925092565b5f60208284031215610dfa57610df9610c6b565b5b5f610e0784828501610cb5565b91505092915050565b5f60ff82169050919050565b610e2581610e10565b82525050565b5f602082019050610e3e5f830184610e1c565b92915050565b5f5f60408385031215610e5a57610e59610c6b565b5b5f610e6785828601610cb5565b9250506020610e7885828601610cb5565b9150509250929050565b7f4e487b71000000000000000000000000000000000000000000000000000000005f52602260045260245ffd5b5f6002820490506001821680610ec657607f821691505b602082108103610ed957610ed8610e82565b5b50919050565b7f45524332303a207472616e736665726d73672e73656e646572203e3d20616d6f5f8201527f756e740000000000000000000000000000000000000000000000000000000000602082015250565b5f610f39602383610be5565b9150610f4482610edf565b604082019050919050565b5f6020820190508181035f830152610f6681610f2d565b9050919050565b7f4e487b71000000000000000000000000000000000000000000000000000000005f52601160045260245ffd5b5f610fa482610cc9565b9150610faf83610cc9565b9250828203905081811115610fc757610fc6610f6d565b5b92915050565b5f610fd782610cc9565b9150610fe283610cc9565b9250828201905080821115610ffa57610ff9610f6d565b5b92915050565b61100981610c8e565b82525050565b5f6040820190506110225f830185611000565b61102f6020830184610d6d565b9392505050565b7f45524332303a207472616e7366657220616d6f756e74206578636565647320615f8201527f6c6c6f77616e6365000000000000000000000000000000000000000000000000602082015250565b5f611090602883610be5565b915061109b82611036565b604082019050919050565b5f6020820190508181035f8301526110bd81611084565b9050919050565b7f45524332303a207472616e7366657220616d6f756e74206578636565647320625f8201527f616c616e63650000000000000000000000000000000000000000000000000000602082015250565b5f61111e602683610be5565b9150611129826110c4565b604082019050919050565b5f6020820190508181035f83015261114b81611112565b905091905056fea2646970667358221220ccd8c5536d45035f5ce0f121f2467657a178a24f2f57c69bdfe1f9761d2dfafa64736f6c634300081c0033","linkReferences":{}},"methodIdentifiers":{"allowance(address,address)":"dd62ed3e","allowances(address,address)":"55b6ed5c","approve(address,uint256)":"095ea7b3","balanceOf(address)":"70a08231","balances(address)":"27e235e3","decimals()":"313ce567","name()":"06fdde03","symbol()":"95d89b41","totalSupply()":"18160ddd","transfer(address,uint256)":"a9059cbb","transferFrom(address,address,uint256)":"23b872dd","transferWithCallback(address,uint256)":"1a825b75"},"id":27}