{"abi":[{"type":"constructor","inputs":[{"name":"_token","type":"address","internalType":"address"}],"stateMutability":"nonpayable"},{"type":"function","name":"balances","inputs":[{"name":"","type":"address","internalType":"address"}],"outputs":[{"name":"","type":"uint256","internalType":"uint256"}],"stateMutability":"view"},{"type":"function","name":"deposit","inputs":[{"name":"amount","type":"uint256","internalType":"uint256"}],"outputs":[],"stateMutability":"nonpayable"},{"type":"function","name":"token","inputs":[],"outputs":[{"name":"","type":"address","internalType":"contract IERC20"}],"stateMutability":"view"},{"type":"function","name":"withdraw","inputs":[{"name":"amount","type":"uint256","internalType":"uint256"}],"outputs":[],"stateMutability":"nonpayable"},{"type":"event","name":"Deposit","inputs":[{"name":"user","type":"address","indexed":true,"internalType":"address"},{"name":"amount","type":"uint256","indexed":false,"internalType":"uint256"}],"anonymous":false},{"type":"event","name":"Withdraw","inputs":[{"name":"user","type":"address","indexed":true,"internalType":"address"},{"name":"amount","type":"uint256","indexed":false,"internalType":"uint256"}],"anonymous":false}],"bytecode":{"object":"0x608060405234801561000f575f5ffd5b50604051610d0a380380610d0a83398181016040528101906100319190610142565b5f73ffffffffffffffffffffffffffffffffffffffff168173ffffffffffffffffffffffffffffffffffffffff160361009f576040517f08c379a0000000000000000000000000000000000000000000000000000000008152600401610096906101c7565b60405180910390fd5b805f5f6101000a81548173ffffffffffffffffffffffffffffffffffffffff021916908373ffffffffffffffffffffffffffffffffffffffff160217905550506101e5565b5f5ffd5b5f73ffffffffffffffffffffffffffffffffffffffff82169050919050565b5f610111826100e8565b9050919050565b61012181610107565b811461012b575f5ffd5b50565b5f8151905061013c81610118565b92915050565b5f60208284031215610157576101566100e4565b5b5f6101648482850161012e565b91505092915050565b5f82825260208201905092915050565b7f546f6b656e20616464726573732063616e6e6f74206265207a65726f000000005f82015250565b5f6101b1601c8361016d565b91506101bc8261017d565b602082019050919050565b5f6020820190508181035f8301526101de816101a5565b9050919050565b610b18806101f25f395ff3fe608060405234801561000f575f5ffd5b506004361061004a575f3560e01c806327e235e31461004e5780632e1a7d4d1461007e578063b6b55f251461009a578063fc0c546a146100b6575b5f5ffd5b61006860048036038101906100639190610649565b6100d4565b604051610075919061068c565b60405180910390f35b610098600480360381019061009391906106cf565b6100e9565b005b6100b460048036038101906100af91906106cf565b610329565b005b6100be6105c7565b6040516100cb9190610755565b60405180910390f35b6001602052805f5260405f205f915090505481565b5f811161012b576040517f08c379a0000000000000000000000000000000000000000000000000000000008152600401610122906107c8565b60405180910390fd5b8060015f3373ffffffffffffffffffffffffffffffffffffffff1673ffffffffffffffffffffffffffffffffffffffff1681526020019081526020015f205410156101ab576040517f08c379a00000000000000000000000000000000000000000000000000000000081526004016101a290610830565b60405180910390fd5b8060015f3373ffffffffffffffffffffffffffffffffffffffff1673ffffffffffffffffffffffffffffffffffffffff1681526020019081526020015f205f8282546101f7919061087b565b925050819055505f5f9054906101000a900473ffffffffffffffffffffffffffffffffffffffff1673ffffffffffffffffffffffffffffffffffffffff1663a9059cbb33836040518363ffffffff1660e01b81526004016102599291906108bd565b6020604051808303815f875af1158015610275573d5f5f3e3d5ffd5b505050506040513d601f19601f820116820180604052508101906102999190610919565b6102d8576040517f08c379a00000000000000000000000000000000000000000000000000000000081526004016102cf9061098e565b60405180910390fd5b3373ffffffffffffffffffffffffffffffffffffffff167f884edad9ce6fa2440d8a54cc123490eb96d2768479d49ff9c7366125a94243648260405161031e919061068c565b60405180910390a250565b5f811161036b576040517f08c379a0000000000000000000000000000000000000000000000000000000008152600401610362906107c8565b60405180910390fd5b805f5f9054906101000a900473ffffffffffffffffffffffffffffffffffffffff1673ffffffffffffffffffffffffffffffffffffffff1663dd62ed3e33306040518363ffffffff1660e01b81526004016103c79291906109ac565b602060405180830381865afa1580156103e2573d5f5f3e3d5ffd5b505050506040513d601f19601f8201168201806040525081019061040691906109e7565b1015610447576040517f08c379a000000000000000000000000000000000000000000000000000000000815260040161043e90610a5c565b60405180910390fd5b5f5f9054906101000a900473ffffffffffffffffffffffffffffffffffffffff1673ffffffffffffffffffffffffffffffffffffffff166323b872dd3330846040518463ffffffff1660e01b81526004016104a493929190610a7a565b6020604051808303815f875af11580156104c0573d5f5f3e3d5ffd5b505050506040513d601f19601f820116820180604052508101906104e49190610919565b610523576040517f08c379a000000000000000000000000000000000000000000000000000000000815260040161051a9061098e565b60405180910390fd5b8060015f3373ffffffffffffffffffffffffffffffffffffffff1673ffffffffffffffffffffffffffffffffffffffff1681526020019081526020015f205f82825461056f9190610aaf565b925050819055503373ffffffffffffffffffffffffffffffffffffffff167fe1fffcc4923d04b559f4d29a8bfc6cda04eb5b0d3c460751c2402c5c5cc9109c826040516105bc919061068c565b60405180910390a250565b5f5f9054906101000a900473ffffffffffffffffffffffffffffffffffffffff1681565b5f5ffd5b5f73ffffffffffffffffffffffffffffffffffffffff82169050919050565b5f610618826105ef565b9050919050565b6106288161060e565b8114610632575f5ffd5b50565b5f813590506106438161061f565b92915050565b5f6020828403121561065e5761065d6105eb565b5b5f61066b84828501610635565b91505092915050565b5f819050919050565b61068681610674565b82525050565b5f60208201905061069f5f83018461067d565b92915050565b6106ae81610674565b81146106b8575f5ffd5b50565b5f813590506106c9816106a5565b92915050565b5f602082840312156106e4576106e36105eb565b5b5f6106f1848285016106bb565b91505092915050565b5f819050919050565b5f61071d610718610713846105ef565b6106fa565b6105ef565b9050919050565b5f61072e82610703565b9050919050565b5f61073f82610724565b9050919050565b61074f81610735565b82525050565b5f6020820190506107685f830184610746565b92915050565b5f82825260208201905092915050565b7f416d6f756e74206d7573742062652067726561746572207468616e20300000005f82015250565b5f6107b2601d8361076e565b91506107bd8261077e565b602082019050919050565b5f6020820190508181035f8301526107df816107a6565b9050919050565b7f496e73756666696369656e742062616c616e63650000000000000000000000005f82015250565b5f61081a60148361076e565b9150610825826107e6565b602082019050919050565b5f6020820190508181035f8301526108478161080e565b9050919050565b7f4e487b71000000000000000000000000000000000000000000000000000000005f52601160045260245ffd5b5f61088582610674565b915061089083610674565b92508282039050818111156108a8576108a761084e565b5b92915050565b6108b78161060e565b82525050565b5f6040820190506108d05f8301856108ae565b6108dd602083018461067d565b9392505050565b5f8115159050919050565b6108f8816108e4565b8114610902575f5ffd5b50565b5f81519050610913816108ef565b92915050565b5f6020828403121561092e5761092d6105eb565b5b5f61093b84828501610905565b91505092915050565b7f5472616e73666572206661696c656400000000000000000000000000000000005f82015250565b5f610978600f8361076e565b915061098382610944565b602082019050919050565b5f6020820190508181035f8301526109a58161096c565b9050919050565b5f6040820190506109bf5f8301856108ae565b6109cc60208301846108ae565b9392505050565b5f815190506109e1816106a5565b92915050565b5f602082840312156109fc576109fb6105eb565b5b5f610a09848285016109d3565b91505092915050565b7f496e73756666696369656e7420616c6c6f77616e6365000000000000000000005f82015250565b5f610a4660168361076e565b9150610a5182610a12565b602082019050919050565b5f6020820190508181035f830152610a7381610a3a565b9050919050565b5f606082019050610a8d5f8301866108ae565b610a9a60208301856108ae565b610aa7604083018461067d565b949350505050565b5f610ab982610674565b9150610ac483610674565b9250828201905080821115610adc57610adb61084e565b5b9291505056fea2646970667358221220c56f0184e9634ea63a26a8ef48e25cb9daef5293f670e9bb49502cc21c68a2ab64736f6c634300081c0033","linkReferences":{}},"methodIdentifiers":{"balances(address)":"27e235e3","deposit(uint256)":"b6b55f25","token()":"fc0c546a","withdraw(uint256)":"2e1a7d4d"},"id":30}