{"abi":[{"type":"constructor","inputs":[{"name":"_paymentToken","type":"address","internalType":"address"}],"stateMutability":"nonpayable"},{"type":"function","name":"buyNFT","inputs":[{"name":"nftContract","type":"address","internalType":"address"},{"name":"tokenId","type":"uint256","internalType":"uint256"}],"outputs":[],"stateMutability":"nonpayable"},{"type":"function","name":"getListing","inputs":[{"name":"nftContract","type":"address","internalType":"address"},{"name":"tokenId","type":"uint256","internalType":"uint256"}],"outputs":[{"name":"seller","type":"address","internalType":"address"},{"name":"price","type":"uint256","internalType":"uint256"},{"name":"isActive","type":"bool","internalType":"bool"}],"stateMutability":"view"},{"type":"function","name":"list","inputs":[{"name":"nftContract","type":"address","internalType":"address"},{"name":"tokenId","type":"uint256","internalType":"uint256"},{"name":"price","type":"uint256","internalType":"uint256"}],"outputs":[],"stateMutability":"nonpayable"},{"type":"function","name":"listings","inputs":[{"name":"","type":"address","internalType":"address"},{"name":"","type":"uint256","internalType":"uint256"}],"outputs":[{"name":"seller","type":"address","internalType":"address"},{"name":"nftContract","type":"address","internalType":"address"},{"name":"tokenId","type":"uint256","internalType":"uint256"},{"name":"price","type":"uint256","internalType":"uint256"},{"name":"isActive","type":"bool","internalType":"bool"}],"stateMutability":"view"},{"type":"function","name":"paymentToken","inputs":[],"outputs":[{"name":"","type":"address","internalType":"contract IERC20"}],"stateMutability":"view"},{"type":"function","name":"tokensReceived","inputs":[{"name":"from","type":"address","internalType":"address"},{"name":"amount","type":"uint256","internalType":"uint256"},{"name":"data","type":"bytes","internalType":"bytes"}],"outputs":[{"name":"","type":"bool","internalType":"bool"}],"stateMutability":"nonpayable"},{"type":"event","name":"NFTListed","inputs":[{"name":"nftContract","type":"address","indexed":true,"internalType":"address"},{"name":"tokenId","type":"uint256","indexed":true,"internalType":"uint256"},{"name":"seller","type":"address","indexed":true,"internalType":"address"},{"name":"price","type":"uint256","indexed":false,"internalType":"uint256"}],"anonymous":false},{"type":"event","name":"NFTPurchased","inputs":[{"name":"nftContract","type":"address","indexed":true,"internalType":"address"},{"name":"tokenId","type":"uint256","indexed":true,"internalType":"uint256"},{"name":"buyer","type":"address","indexed":true,"internalType":"address"},{"name":"price","type":"uint256","indexed":false,"internalType":"uint256"}],"anonymous":false}],"bytecode":{"object":"0x60a060405234801561000f575f5ffd5b5060405161209f38038061209f83398181016040528101906100319190610137565b5f73ffffffffffffffffffffffffffffffffffffffff168173ffffffffffffffffffffffffffffffffffffffff160361009f576040517f08c379a0000000000000000000000000000000000000000000000000000000008152600401610096906101bc565b60405180910390fd5b8073ffffffffffffffffffffffffffffffffffffffff1660808173ffffffffffffffffffffffffffffffffffffffff1681525050506101da565b5f5ffd5b5f73ffffffffffffffffffffffffffffffffffffffff82169050919050565b5f610106826100dd565b9050919050565b610116816100fc565b8114610120575f5ffd5b50565b5f815190506101318161010d565b92915050565b5f6020828403121561014c5761014b6100d9565b5b5f61015984828501610123565b91505092915050565b5f82825260208201905092915050565b7f496e76616c6964207061796d656e7420746f6b656e00000000000000000000005f82015250565b5f6101a6601583610162565b91506101b182610172565b602082019050919050565b5f6020820190508181035f8301526101d38161019a565b9050919050565b608051611e9161020e5f395f81816101d8015281816105990152818161082901528181610af90152610be60152611e915ff3fe608060405234801561000f575f5ffd5b506004361061005f575f3560e01c806207df30146100635780633013ce291461009757806388700d1c146100b5578063a82ba76f146100e7578063d031426314610103578063dda342bb14610133575b5f5ffd5b61007d600480360381019061007891906114b7565b61014f565b60405161008e95949392919061152d565b60405180910390f35b61009f6101d6565b6040516100ac91906115d9565b60405180910390f35b6100cf60048036038101906100ca91906114b7565b6101fa565b6040516100de939291906115f2565b60405180910390f35b61010160048036038101906100fc91906114b7565b61034a565b005b61011d60048036038101906101189190611688565b610826565b60405161012a91906116f9565b60405180910390f35b61014d60048036038101906101489190611712565b610e6c565b005b6001602052815f5260405f20602052805f5260405f205f9150915050805f015f9054906101000a900473ffffffffffffffffffffffffffffffffffffffff1690806001015f9054906101000a900473ffffffffffffffffffffffffffffffffffffffff1690806002015490806003015490806004015f9054906101000a900460ff16905085565b7f000000000000000000000000000000000000000000000000000000000000000081565b5f5f5f5f60015f8773ffffffffffffffffffffffffffffffffffffffff1673ffffffffffffffffffffffffffffffffffffffff1681526020019081526020015f205f8681526020019081526020015f206040518060a00160405290815f82015f9054906101000a900473ffffffffffffffffffffffffffffffffffffffff1673ffffffffffffffffffffffffffffffffffffffff1673ffffffffffffffffffffffffffffffffffffffff168152602001600182015f9054906101000a900473ffffffffffffffffffffffffffffffffffffffff1673ffffffffffffffffffffffffffffffffffffffff1673ffffffffffffffffffffffffffffffffffffffff1681526020016002820154815260200160038201548152602001600482015f9054906101000a900460ff1615151515815250509050805f015181606001518260800151935093509350509250925092565b5f5f9054906101000a900460ff1615610398576040517f08c379a000000000000000000000000000000000000000000000000000000000815260040161038f906117bc565b60405180910390fd5b60015f5f6101000a81548160ff0219169083151502179055505f60015f8473ffffffffffffffffffffffffffffffffffffffff1673ffffffffffffffffffffffffffffffffffffffff1681526020019081526020015f205f8381526020019081526020015f206040518060a00160405290815f82015f9054906101000a900473ffffffffffffffffffffffffffffffffffffffff1673ffffffffffffffffffffffffffffffffffffffff1673ffffffffffffffffffffffffffffffffffffffff168152602001600182015f9054906101000a900473ffffffffffffffffffffffffffffffffffffffff1673ffffffffffffffffffffffffffffffffffffffff1673ffffffffffffffffffffffffffffffffffffffff1681526020016002820154815260200160038201548152602001600482015f9054906101000a900460ff16151515158152505090508060800151610526576040517f08c379a000000000000000000000000000000000000000000000000000000000815260040161051d90611824565b60405180910390fd5b3373ffffffffffffffffffffffffffffffffffffffff16815f015173ffffffffffffffffffffffffffffffffffffffff1603610597576040517f08c379a000000000000000000000000000000000000000000000000000000000815260040161058e9061188c565b60405180910390fd5b7f000000000000000000000000000000000000000000000000000000000000000073ffffffffffffffffffffffffffffffffffffffff166323b872dd33835f015184606001516040518463ffffffff1660e01b81526004016105fb939291906118aa565b6020604051808303815f875af1158015610617573d5f5f3e3d5ffd5b505050506040513d601f19601f8201168201806040525081019061063b9190611909565b61067a576040517f08c379a00000000000000000000000000000000000000000000000000000000081526004016106719061197e565b60405180910390fd5b8273ffffffffffffffffffffffffffffffffffffffff166323b872dd3033856040518463ffffffff1660e01b81526004016106b7939291906118aa565b5f604051808303815f87803b1580156106ce575f5ffd5b505af11580156106e0573d5f5f3e3d5ffd5b5050505060015f8473ffffffffffffffffffffffffffffffffffffffff1673ffffffffffffffffffffffffffffffffffffffff1681526020019081526020015f205f8381526020019081526020015f205f5f82015f6101000a81549073ffffffffffffffffffffffffffffffffffffffff0219169055600182015f6101000a81549073ffffffffffffffffffffffffffffffffffffffff0219169055600282015f9055600382015f9055600482015f6101000a81549060ff021916905550503373ffffffffffffffffffffffffffffffffffffffff16828473ffffffffffffffffffffffffffffffffffffffff167fd0de3e759b6d8ae4ab8dfd56f0869b691034bf2f14b896155287e5cd61d66a708460600151604051610801919061199c565b60405180910390a4505f5f5f6101000a81548160ff0219169083151502179055505050565b5f7f000000000000000000000000000000000000000000000000000000000000000073ffffffffffffffffffffffffffffffffffffffff163373ffffffffffffffffffffffffffffffffffffffff16146108b5576040517f08c379a00000000000000000000000000000000000000000000000000000000081526004016108ac906119ff565b60405180910390fd5b5f5f84848101906108c69190611a58565b915091505f60015f8473ffffffffffffffffffffffffffffffffffffffff1673ffffffffffffffffffffffffffffffffffffffff1681526020019081526020015f205f8381526020019081526020015f206040518060a00160405290815f82015f9054906101000a900473ffffffffffffffffffffffffffffffffffffffff1673ffffffffffffffffffffffffffffffffffffffff1673ffffffffffffffffffffffffffffffffffffffff168152602001600182015f9054906101000a900473ffffffffffffffffffffffffffffffffffffffff1673ffffffffffffffffffffffffffffffffffffffff1673ffffffffffffffffffffffffffffffffffffffff1681526020016002820154815260200160038201548152602001600482015f9054906101000a900460ff16151515158152505090508060800151610a3f576040517f08c379a0000000000000000000000000000000000000000000000000000000008152600401610a3690611824565b60405180910390fd5b8060600151871015610a86576040517f08c379a0000000000000000000000000000000000000000000000000000000008152600401610a7d90611ae0565b60405180910390fd5b805f015173ffffffffffffffffffffffffffffffffffffffff168873ffffffffffffffffffffffffffffffffffffffff1603610af7576040517f08c379a0000000000000000000000000000000000000000000000000000000008152600401610aee9061188c565b60405180910390fd5b7f000000000000000000000000000000000000000000000000000000000000000073ffffffffffffffffffffffffffffffffffffffff1663a9059cbb825f015183606001516040518363ffffffff1660e01b8152600401610b59929190611afe565b6020604051808303815f875af1158015610b75573d5f5f3e3d5ffd5b505050506040513d601f19601f82011682018060405250810190610b999190611909565b610bd8576040517f08c379a0000000000000000000000000000000000000000000000000000000008152600401610bcf90611b6f565b60405180910390fd5b8060600151871115610cce577f000000000000000000000000000000000000000000000000000000000000000073ffffffffffffffffffffffffffffffffffffffff1663a9059cbb8983606001518a610c319190611bba565b6040518363ffffffff1660e01b8152600401610c4e929190611afe565b6020604051808303815f875af1158015610c6a573d5f5f3e3d5ffd5b505050506040513d601f19601f82011682018060405250810190610c8e9190611909565b610ccd576040517f08c379a0000000000000000000000000000000000000000000000000000000008152600401610cc490611c37565b60405180910390fd5b5b8273ffffffffffffffffffffffffffffffffffffffff166323b872dd308a856040518463ffffffff1660e01b8152600401610d0b939291906118aa565b5f604051808303815f87803b158015610d22575f5ffd5b505af1158015610d34573d5f5f3e3d5ffd5b5050505060015f8473ffffffffffffffffffffffffffffffffffffffff1673ffffffffffffffffffffffffffffffffffffffff1681526020019081526020015f205f8381526020019081526020015f205f5f82015f6101000a81549073ffffffffffffffffffffffffffffffffffffffff0219169055600182015f6101000a81549073ffffffffffffffffffffffffffffffffffffffff0219169055600282015f9055600382015f9055600482015f6101000a81549060ff021916905550508773ffffffffffffffffffffffffffffffffffffffff16828473ffffffffffffffffffffffffffffffffffffffff167fd0de3e759b6d8ae4ab8dfd56f0869b691034bf2f14b896155287e5cd61d66a708460600151604051610e55919061199c565b60405180910390a460019350505050949350505050565b5f5f9054906101000a900460ff1615610eba576040517f08c379a0000000000000000000000000000000000000000000000000000000008152600401610eb1906117bc565b60405180910390fd5b60015f5f6101000a81548160ff0219169083151502179055505f8111610f15576040517f08c379a0000000000000000000000000000000000000000000000000000000008152600401610f0c90611c9f565b60405180910390fd5b5f73ffffffffffffffffffffffffffffffffffffffff168373ffffffffffffffffffffffffffffffffffffffff1603610f83576040517f08c379a0000000000000000000000000000000000000000000000000000000008152600401610f7a90611d07565b60405180910390fd5b5f8390503373ffffffffffffffffffffffffffffffffffffffff168173ffffffffffffffffffffffffffffffffffffffff16636352211e856040518263ffffffff1660e01b8152600401610fd7919061199c565b602060405180830381865afa158015610ff2573d5f5f3e3d5ffd5b505050506040513d601f19601f820116820180604052508101906110169190611d39565b73ffffffffffffffffffffffffffffffffffffffff161461106c576040517f08c379a000000000000000000000000000000000000000000000000000000000815260040161106390611dae565b60405180910390fd5b3073ffffffffffffffffffffffffffffffffffffffff168173ffffffffffffffffffffffffffffffffffffffff1663081812fc856040518263ffffffff1660e01b81526004016110bc919061199c565b602060405180830381865afa1580156110d7573d5f5f3e3d5ffd5b505050506040513d601f19601f820116820180604052508101906110fb9190611d39565b73ffffffffffffffffffffffffffffffffffffffff16148061119357508073ffffffffffffffffffffffffffffffffffffffff1663e985e9c533306040518363ffffffff1660e01b8152600401611153929190611dcc565b602060405180830381865afa15801561116e573d5f5f3e3d5ffd5b505050506040513d601f19601f820116820180604052508101906111929190611909565b5b6111d2576040517f08c379a00000000000000000000000000000000000000000000000000000000081526004016111c990611e3d565b60405180910390fd5b8073ffffffffffffffffffffffffffffffffffffffff166323b872dd3330866040518463ffffffff1660e01b815260040161120f939291906118aa565b5f604051808303815f87803b158015611226575f5ffd5b505af1158015611238573d5f5f3e3d5ffd5b505050506040518060a001604052803373ffffffffffffffffffffffffffffffffffffffff1681526020018573ffffffffffffffffffffffffffffffffffffffff1681526020018481526020018381526020016001151581525060015f8673ffffffffffffffffffffffffffffffffffffffff1673ffffffffffffffffffffffffffffffffffffffff1681526020019081526020015f205f8581526020019081526020015f205f820151815f015f6101000a81548173ffffffffffffffffffffffffffffffffffffffff021916908373ffffffffffffffffffffffffffffffffffffffff1602179055506020820151816001015f6101000a81548173ffffffffffffffffffffffffffffffffffffffff021916908373ffffffffffffffffffffffffffffffffffffffff16021790555060408201518160020155606082015181600301556080820151816004015f6101000a81548160ff0219169083151502179055509050503373ffffffffffffffffffffffffffffffffffffffff16838573ffffffffffffffffffffffffffffffffffffffff167f392a0f172cb29479635d0b2219b2f96ef24f74dfdf328cb09f1496efe6cfddbe856040516113fc919061199c565b60405180910390a4505f5f5f6101000a81548160ff021916908315150217905550505050565b5f5ffd5b5f5ffd5b5f73ffffffffffffffffffffffffffffffffffffffff82169050919050565b5f6114538261142a565b9050919050565b61146381611449565b811461146d575f5ffd5b50565b5f8135905061147e8161145a565b92915050565b5f819050919050565b61149681611484565b81146114a0575f5ffd5b50565b5f813590506114b18161148d565b92915050565b5f5f604083850312156114cd576114cc611422565b5b5f6114da85828601611470565b92505060206114eb858286016114a3565b9150509250929050565b6114fe81611449565b82525050565b61150d81611484565b82525050565b5f8115159050919050565b61152781611513565b82525050565b5f60a0820190506115405f8301886114f5565b61154d60208301876114f5565b61155a6040830186611504565b6115676060830185611504565b611574608083018461151e565b9695505050505050565b5f819050919050565b5f6115a161159c6115978461142a565b61157e565b61142a565b9050919050565b5f6115b282611587565b9050919050565b5f6115c3826115a8565b9050919050565b6115d3816115b9565b82525050565b5f6020820190506115ec5f8301846115ca565b92915050565b5f6060820190506116055f8301866114f5565b6116126020830185611504565b61161f604083018461151e565b949350505050565b5f5ffd5b5f5ffd5b5f5ffd5b5f5f83601f84011261164857611647611627565b5b8235905067ffffffffffffffff8111156116655761166461162b565b5b6020830191508360018202830111156116815761168061162f565b5b9250929050565b5f5f5f5f606085870312156116a05761169f611422565b5b5f6116ad87828801611470565b94505060206116be878288016114a3565b935050604085013567ffffffffffffffff8111156116df576116de611426565b5b6116eb87828801611633565b925092505092959194509250565b5f60208201905061170c5f83018461151e565b92915050565b5f5f5f6060848603121561172957611728611422565b5b5f61173686828701611470565b9350506020611747868287016114a3565b9250506040611758868287016114a3565b9150509250925092565b5f82825260208201905092915050565b7f5265656e7472616e637947756172643a207265656e7472616e742063616c6c005f82015250565b5f6117a6601f83611762565b91506117b182611772565b602082019050919050565b5f6020820190508181035f8301526117d38161179a565b9050919050565b7f4e4654206e6f74206c69737465640000000000000000000000000000000000005f82015250565b5f61180e600e83611762565b9150611819826117da565b602082019050919050565b5f6020820190508181035f83015261183b81611802565b9050919050565b7f43616e6e6f742062757920796f7572206f776e204e46540000000000000000005f82015250565b5f611876601783611762565b915061188182611842565b602082019050919050565b5f6020820190508181035f8301526118a38161186a565b9050919050565b5f6060820190506118bd5f8301866114f5565b6118ca60208301856114f5565b6118d76040830184611504565b949350505050565b6118e881611513565b81146118f2575f5ffd5b50565b5f81519050611903816118df565b92915050565b5f6020828403121561191e5761191d611422565b5b5f61192b848285016118f5565b91505092915050565b7f5061796d656e74206661696c65640000000000000000000000000000000000005f82015250565b5f611968600e83611762565b915061197382611934565b602082019050919050565b5f6020820190508181035f8301526119958161195c565b9050919050565b5f6020820190506119af5f830184611504565b92915050565b7f496e76616c696420746f6b656e000000000000000000000000000000000000005f82015250565b5f6119e9600d83611762565b91506119f4826119b5565b602082019050919050565b5f6020820190508181035f830152611a16816119dd565b9050919050565b5f611a278261142a565b9050919050565b611a3781611a1d565b8114611a41575f5ffd5b50565b5f81359050611a5281611a2e565b92915050565b5f5f60408385031215611a6e57611a6d611422565b5b5f611a7b85828601611a44565b9250506020611a8c858286016114a3565b9150509250929050565b7f496e73756666696369656e74207061796d656e740000000000000000000000005f82015250565b5f611aca601483611762565b9150611ad582611a96565b602082019050919050565b5f6020820190508181035f830152611af781611abe565b9050919050565b5f604082019050611b115f8301856114f5565b611b1e6020830184611504565b9392505050565b7f5061796d656e74207472616e73666572206661696c65640000000000000000005f82015250565b5f611b59601783611762565b9150611b6482611b25565b602082019050919050565b5f6020820190508181035f830152611b8681611b4d565b9050919050565b7f4e487b71000000000000000000000000000000000000000000000000000000005f52601160045260245ffd5b5f611bc482611484565b9150611bcf83611484565b9250828203905081811115611be757611be6611b8d565b5b92915050565b7f526566756e64206661696c6564000000000000000000000000000000000000005f82015250565b5f611c21600d83611762565b9150611c2c82611bed565b602082019050919050565b5f6020820190508181035f830152611c4e81611c15565b9050919050565b7f5072696365206d7573742062652067726561746572207468616e2030000000005f82015250565b5f611c89601c83611762565b9150611c9482611c55565b602082019050919050565b5f6020820190508181035f830152611cb681611c7d565b9050919050565b7f496e76616c6964204e465420636f6e74726163740000000000000000000000005f82015250565b5f611cf1601483611762565b9150611cfc82611cbd565b602082019050919050565b5f6020820190508181035f830152611d1e81611ce5565b9050919050565b5f81519050611d338161145a565b92915050565b5f60208284031215611d4e57611d4d611422565b5b5f611d5b84828501611d25565b91505092915050565b7f4e6f7420746865204e4654206f776e65720000000000000000000000000000005f82015250565b5f611d98601183611762565b9150611da382611d64565b602082019050919050565b5f6020820190508181035f830152611dc581611d8c565b9050919050565b5f604082019050611ddf5f8301856114f5565b611dec60208301846114f5565b9392505050565b7f4e4654206e6f7420617070726f766564000000000000000000000000000000005f82015250565b5f611e27601083611762565b9150611e3282611df3565b602082019050919050565b5f6020820190508181035f830152611e5481611e1b565b905091905056fea2646970667358221220419f80eac32b13a51342c19ddcbc269c2c25d2fe4b8d0702f47d096c1e16ffeb64736f6c634300081c0033","linkReferences":{}},"methodIdentifiers":{"buyNFT(address,uint256)":"a82ba76f","getListing(address,uint256)":"88700d1c","list(address,uint256,uint256)":"dda342bb","listings(address,uint256)":"0007df30","paymentToken()":"3013ce29","tokensReceived(address,uint256,bytes)":"d0314263"},"id":35}